:100000000C9434000C9449000C9449000C94490061
:100010000C9449000C9449000C9449000C9449003C
:100020000C9449000C9449000C9449000C9449002C
:100030000C9449000C9449000C9449000C9449001C
:100040000C9449000C9449000C9449000C9449000C
:100050000C9449000C9449000C9449000C944900FC
:100060000C9449000C94490011241FBECFEFD8E036
:10007000DEBFCDBF11E0A0E0B1E0E4E5F1E002C0F9
:1000800005900D92A031B107D9F70E9497000C940A
:10009000A8000C9400008CE284B981E58CBD089521
:1000A00080E184B980EC8CBD789408952A988EBD47
:1000B0000DB407FEFDCF2A9A8EB508950DB407FE44
:1000C000FDCF8EB50895519A50981092C50087E6DD
:1000D0008093C40088E18093C10086E08093C200D1
:1000E00008959091C00095FFFCCF8093C6000895BD
:1000F0001F93CF93DF93EC0110E0FE01E10FF11DA0
:100100008081811109C08DE00E9471008AE0DF9139
:10011000CF911F910C9471000E9471001F5FEDCF71
:100120008091C00087FFFCCF8091C600089578942D
:100130000E9463002FEF83ED90E3215080409040B8
:10014000E1F700C0000080E091E00E947800F2CF6B
:04015000F894FFCF51
:100154004E696B6F616C206B6F6E6A203A290000E8
:00000001FF
